:100000000C943C010C946D010C946D010C946D01E9
:100010000C946D010C946D010C946D010C946D01A8
:100020000C946D010C946D010C946D010C946D0198
:100030000C946D010C946D010C946D010C946D0188
:100040000C946D010C946D010C946D010C946D0178
:100050000C946D010C946D010C946D010C94E504ED
:100060000C946D010C94AF040C9485040C946D01F8
:100070000C946D010C946D010C946D010C946D0148
:100080000C946D010C946D010C946D010C946D0138
:100090000C946D010C946D010C946D010C946D0128
:1000A0000C946D010C946D010C946D010C946D0118
:1000B0000C946D010C946D010C946D010C946D0108
:1000C0000C946D010C946D010C946D010C946D01F8
:1000D0000C946D010C946D010C946D010C946D01E8
:1000E0000C946D010C9430030C94E0030C941E03EB
:1000F0000C945B040C942C030C9413040C94710268
:100100000C9409030C94BB010C94F7020C94150396
:100110000C9448030C943A030C9428030C94110398
:100120000C94FD030C94CA010C9418030C94430422
:100130000C94F2020C94DE010C942F050C940D0328
:100140000C94EC010C9436030C9437040C948E013F
:100150000C9444030C943E030C9424020C9422034C
:100160000C9430040C9454040C942E040C94EC0362
:1001700000000A0B02090C0D0E0807030401000021
:10018000000000000000000000000000000000006F
:10019000000000000000000000000000121110002C
:1001A000000000000000000000000000000000004F
:1001B00000000000000000002200250028002B00A5
:1001C0002E003100340002010000050108010B017E
:1001D00000002100240027002A002D0030003300F9
:1001E00001010000040107010A01050505050705D5
:1001F00008080808020202020A0A080804040404A3
:1002000001010101010101010303030303030303CE
:10021000040707070C0C0C0C0C0C0C0C020202025D
:1002200006060606060606060B0B0B0B0B0B0B0B46
:1002300001021020200808102040102040800201F8
:1002400002010804020101020408102040808040DD
:1002500020100804020180040201804020100804DC
:10026000020108040201010204081020408001027A
:100270000408102040802F0511241FBECFEFD1E2CB
:10028000DEBFCDBF00E00CBF12E0A0E0B2E0ECECBE
:10029000FEE000E00BBF02C007900D92A231B10753
:1002A000D9F722E0A2E1B2E001C01D92A23DB2075F
:1002B000E1F711E0CCE3D1E000E006C021970109AD
:1002C000802FFE010E942607CB33D10780E008076C
:1002D000A9F70E9490050C9464070C94000090E02C
:1002E000FC01E05DFD4F249186519E4FFC018491FD
:1002F000882399F090E0880F991FFC01E053FE4F8E
:10030000A591B491FC01EA54FE4F859194918FB769
:10031000F894EC91E22BEC938FBF0895AF92BF92CB
:10032000CF92DF92EF92FF920F931F93CF93DF93C1
:100330006C017B018B01040F151FEB015E01AE18F0
:10034000BF08C017D10759F06991D601ED91FC9112
:100350000190F081E02DC6011995892B79F7C5012F
:10036000DF91CF911F910F91FF90EF90DF90CF9091
:10037000BF90AF900895FC01538D448D252F30E040
:10038000842F90E0821B930B541710F0CF960895A2
:1003900001970895FC01918D828D981761F0A28DCF
:1003A000AE0FBF2FB11D5D968C91928D9F5F9F7395
:1003B000928F90E008958FEF9FEF0895FC01918D4B
:1003C000828D981731F0828DE80FF11D858D90E0B8
:1003D00008958FEF9FEF0895FC01918D228D892F55
:1003E00090E0805C9F4F821B91098F73992708953D
:1003F0008BE192E00E94EC0121E0892B09F420E0DE
:10040000822F0895FC01A48DA80FB92FB11DA35A06
:10041000BF4F2C91848D90E001968F739927848F24
:10042000A689B7892C93A089B1898C918370806447
:100430008C93938D848D981306C00288F389E02DE8
:1004400080818F7D80830895EF92FF920F931F9399
:10045000CF93DF93EC0181E0888F9B8D8C8D981377
:100460001AC0E889F989808185FF15C09FB7F89483
:10047000EE89FF896083E889F989808183708064CF
:1004800080839FBF81E090E0DF91CF911F910F911A
:10049000FF90EF900895F62E0B8D10E00F5F1F4F29
:1004A0000F731127E02E8C8D8E110CC00FB607FC38
:1004B000FACFE889F989808185FFF5CFCE010E94C6
:1004C0000202F1CFEB8DEC0FFD2FF11DE35AFF4F30
:1004D000F0829FB7F8940B8FEA89FB898081806254
:1004E000CFCFCF93DF93EC01888D8823B9F0AA8911
:1004F000BB89E889F9898C9185FD03C0808186FDDF
:100500000DC00FB607FCF7CF8C9185FFF2CF80812D
:1005100085FFEDCFCE010E940202E9CFDF91CF919E
:10052000089580E090E0892B29F00E94F801811164
:100530000E94000080E090E0892B49F080E090E08C
:10054000892B29F00E94000081110E94000080E0A8
:1005500090E0892B49F080E090E0892B29F00E94FF
:10056000000081110E94000080E090E0892B49F09A
:1005700080E090E0892B29F00E94000081110C940A
:1005800000000895282F30E0F901E059FE4F9491C2
:10059000F901E05DFD4F449126513E4FF901249150
:1005A000222309F435C0992311F191509231F8F4C6
:1005B000E92FF0E08827E052FD4F8F4F0C9426077B
:1005C00011031503F20209030D03F70218031E03BA
:1005D000220328032C03300336033A03F7023E03B9
:1005E00044034803809180008F7780938000E22F3E
:1005F000F0E0EE0FFF1FEA54FE4FA591B4918FB7C4
:10060000F894EC91611148C040954E234C938FBFF4
:100610000895809180008F7DE8CF80918000877F52
:10062000E4CF84B58F7784BDE2CF84B58F7DFBCFD7
:100630008091B0008F778093B000D9CF8091B000C7
:100640008F7DF9CF809190008F7780939000CFCFEE
:10065000809190008F7DF9CF80919000877FF5CFBA
:100660008091A0008F778093A000C1CF8091A000DF
:100670008F7DF9CF8091A000877FF5CF80912001F9
:100680008F7780932001B3CF809120018F7DF9CFA8
:1006900080912001877FF5CF4E2BB8CFCF93DF938A
:1006A000EC018091C0029091C102029749F4C130DF
:1006B000D10509F43DC07CF560E0209709F439C00C
:1006C0008091C0029091C102049749F4C130D105D4
:1006D00009F45EC00CF039C0209709F444C0809141
:1006E000C0029091C102059709F0E7C0CA30D10558
:1006F00008F0E3C0FE018827EF57FC4F8F4F0C94A2
:100700002607E003EC03FD0313042E043004370432
:10071000430454045B04C230D105A9F060E0C33047
:10072000D10571F68091C4020E94C20260E006C049
:1007300061E08091C4020E94C20261E08091C60221
:100740000E94C202BDCF61E0EDCFC230D10539F1C8
:10075000C330D10509F0C3CF61E08091C4020E948B
:10076000C20260E022C061E08091C4020E94C20225
:1007700060E08091C6020E94C20261E08091C802DE
:100780000E94C20260E08091CA020E94C202A7CF0A
:1007900060E08091C4020E94C20261E0EACF60E0A2
:1007A0008091C4020E94C20261E08091C6020E9450
:1007B000C20260E08091C8020E94C20261E0E3CF01
:1007C00060E08091C4020E94C20261E08091C60292
:1007D0000E94C20261E00BC060E08091C4020E94EE
:1007E000C20261E08091C6020E94C20260E0809174
:1007F000C8020E94C20260E010C060E08091C402A2
:100800000E94C20261E08091C6020E94C20260E0C2
:100810008091C8020E94C20261E08091CA020E94D7
:10082000C20261E015C060E08091C4020E94C20271
:1008300061E08091C6020E94C20260E08091C8021D
:100840000E94C20261E08091CA020E94C20260E07E
:100850008091CC02DF91CF910C94C20261E0E4CF91
:1008600061E08091C4020E94C20260E0E2CF61E0D8
:100870008091C4020E94C20260E08091C6020E9480
:10088000C20261E0DBCF61E08091C4020E94C2023B
:1008900060E08091C6020E94C20261E08091C802BD
:1008A0000E94C20260E0CFCF61E08091C4020E944A
:1008B000C20260E08BCF60E0F8CFDF91CF91089566
:1008C0003FB7F8948091170290911802A0911902F5
:1008D000B0911A0226B5A89B05C02F3F19F00196CA
:1008E000A11DB11D3FBFBA2FA92F982F8827BC018A
:1008F000CD01620F711D811D911D42E0660F771FB2
:10090000881F991F4A95D1F708951F920F920FB62D
:100910000F9211240BB60F922F933F934F935F9337
:100920006F937F938F939F93AF93BF93EF93FF93B7
:100930008BE192E00E940202FF91EF91BF91AF9193
:100940009F918F917F916F915F914F913F912F91E7
:100950000F900BBE0F900FBE0F901F9018951F9217
:100960000F920FB60F9211240BB60F922F938F9305
:100970009F93EF93FF93E0912B02F0912C028081E3
:10098000E0913102F091320282FD1DC09081809190
:1009900034028F5F8F7320913502821741F0E0910E
:1009A0003402F0E0E55EFD4F958F80933402FF91B5
:1009B000EF919F918F912F910F900BBE0F900FBED3
:1009C0000F901F9018958081F2CF1F920F920FB653
:1009D0000F9211242F933F938F939F93AF93BF93C5
:1009E0008091130290911402A0911502B091160209
:1009F0003091120223E0230F2D3758F50196A11DE7
:100A0000B11D209312028093130290931402A093BD
:100A10001502B09316028091170290911802A091CE
:100A20001902B0911A020196A11DB11D80931702FF
:100A300090931802A0931902B0931A02BF91AF913C
:100A40009F918F913F912F910F900FBE0F901F900C
:100A5000189526E8230F0296A11DB11DD2CFCF9382
:100A6000DF93EBE1F2E01382128288EE93E0A0E0E4
:100A7000B0E084839583A683B78384E092E091837A
:100A8000808385EC90E09587848784EC90E097875D
:100A9000868780EC90E0918B808B81EC90E0938B4B
:100AA000828B82EC90E0958B848B86EC90E0978B28
:100AB000868B118E128E138E148EC8EBD2E01B869D
:100AC0001A86198218821E8A1F8A188E198E88E249
:100AD00090E09F838E8388E090E09D878C8789E0FB
:100AE00090E09F878E878AE090E0998B888B8BE0DF
:100AF00090E09B8B8A8B88E00E946F018E850E941C
:100B00006F0188890E946F018A890E946F011D8A86
:100B10001C8A84E090E099878887DF91CF910895BF
:100B2000789484B5826084BD84B5816084BD85B5C8
:100B3000826085BD85B5816085BD80916E008160D4
:100B400080936E001092810080918100826080937A
:100B5000810080918100816080938100809180007C
:100B60008160809380008091B10084608093B100A7
:100B70008091B00081608093B0008091910082608C
:100B80008093910080919100816080939100809189
:100B900090008160809390008091A100826080939A
:100BA000A1008091A10081608093A1008091A000AC
:100BB00081608093A0008091210182608093210157
:100BC00080912101816080932101809120018160C9
:100BD0008093200180917A00846080937A008091D4
:100BE0007A00826080937A0080917A00816080939D
:100BF0007A0080917A00806880937A001092C10018
:100C0000E0912B02F0912C0282E08083E091270298
:100C1000F09128021082E0912902F0912A028FECD3
:100C2000808310923302E0912F02F091300286E02F
:100C30008083E0912D02F0912E028081806180837B
:100C4000E0912D02F0912E02808188608083E091F6
:100C50002D02F0912E02808180688083E0912D0228
:100C6000F0912E0280818F7D80832091BE02309191
:100C7000BF02032E000C440B550B60E077E883E9BC
:100C800093E00E940707CA01B9012FE030E040E07D
:100C900050E00E9407072093BA023093BB024093B2
:100CA000BC025093BD0201E010E094E0E92EF12C6B
:100CB0002AE0C22ED12C1093B9020093B802C2E0F0
:100CC000D0E0209709F467C00E9460048090CE02B3
:100CD0009090CF02A090D002B090D1022B013C01A5
:100CE000481859086A087B088090BA029090BB02A5
:100CF000A090BC02B090BD02481459046A047B0461
:100D000000F36093CE027093CF028093D002909351
:100D1000D1028091C2029091C3022091B802309119
:100D2000B9022130310519F501969093C3028093E1
:100D3000C2022091BE023091BF028217930721F4B4
:100D40001092C3021092C20221978091C202909128
:100D5000C3022091C0023091C102B6012530310595
:100D600009F0B7010E94F3060E944E03AACF892B17
:100D700041F48091BE029091BF029093C302809390
:100D8000C2028091C2029091C30201979093C30264
:100D90008093C202D9CF0E9460042B013C0180EDF8
:100DA000882E87E0982EA12CB12C0E946004641933
:100DB000750986099709683E734081059105A8F376
:100DC00021E0821A9108A108B10888EE480E83E05C
:100DD000581E611C711C81149104A104B10429F7EF
:100DE0000E94910268CF97FB072E16F4009407D05B
:100DF00077FD09D00E942E0707FC05D03EF49095A0
:100E000081959F4F0895709561957F4F0895052EA8
:100E100097FB1EF400940E941E0757FD07D00E9406
:100E2000420707FC03D04EF40C941E0750954095E2
:100E3000309521953F4F4F4F5F4F08959095809586
:100E4000709561957F4F8F4F9F4F0895EE0FFF1F55
:100E5000881F8BBF0790F691E02D1994AA1BBB1B2E
:100E600051E107C0AA1FBB1FA617B70710F0A61BAA
:100E7000B70B881F991F5A95A9F780959095BC01CB
:100E8000CD010895A1E21A2EAA1BBB1BFD010DC0C6
:100E9000AA1FBB1FEE1FFF1FA217B307E407F5072A
:100EA00020F0A21BB30BE40BF50B661F771F881F06
:100EB000991F1A9469F760957095809590959B019C
:0C0EC000AC01BD01CF010895F894FFCFF4
:100ECC000000000024028E01BB017102EC01CA017A
:020EDC00DE0135
:00000001FF
